{
  "contractName": "ERC865Token",
  "abi": [
    {
      "constant": false,
      "inputs": [
        {
          "name": "spender",
          "type": "address"
        },
        {
          "name": "value",
          "type": "uint256"
        }
      ],
      "name": "approve",
      "outputs": [
        {
          "name": "",
          "type": "bool"
        }
      ],
      "payable": false,
      "stateMutability": "nonpayable",
      "type": "function"
    },
    {
      "constant": true,
      "inputs": [],
      "name": "totalSupply",
      "outputs": [
        {
          "name": "",
          "type": "uint256"
        }
      ],
      "payable": false,
      "stateMutability": "view",
      "type": "function"
    },
    {
      "constant": false,
      "inputs": [
        {
          "name": "from",
          "type": "address"
        },
        {
          "name": "to",
          "type": "address"
        },
        {
          "name": "value",
          "type": "uint256"
        }
      ],
      "name": "transferFrom",
      "outputs": [
        {
          "name": "",
          "type": "bool"
        }
      ],
      "payable": false,
      "stateMutability": "nonpayable",
      "type": "function"
    },
    {
      "constant": false,
      "inputs": [
        {
          "name": "spender",
          "type": "address"
        },
        {
          "name": "addedValue",
          "type": "uint256"
        }
      ],
      "name": "increaseAllowance",
      "outputs": [
        {
          "name": "",
          "type": "bool"
        }
      ],
      "payable": false,
      "stateMutability": "nonpayable",
      "type": "function"
    },
    {
      "constant": true,
      "inputs": [
        {
          "name": "owner",
          "type": "address"
        }
      ],
      "name": "balanceOf",
      "outputs": [
        {
          "name": "",
          "type": "uint256"
        }
      ],
      "payable": false,
      "stateMutability": "view",
      "type": "function"
    },
    {
      "constant": false,
      "inputs": [
        {
          "name": "spender",
          "type": "address"
        },
        {
          "name": "subtractedValue",
          "type": "uint256"
        }
      ],
      "name": "decreaseAllowance",
      "outputs": [
        {
          "name": "",
          "type": "bool"
        }
      ],
      "payable": false,
      "stateMutability": "nonpayable",
      "type": "function"
    },
    {
      "constant": false,
      "inputs": [
        {
          "name": "to",
          "type": "address"
        },
        {
          "name": "value",
          "type": "uint256"
        }
      ],
      "name": "transfer",
      "outputs": [
        {
          "name": "",
          "type": "bool"
        }
      ],
      "payable": false,
      "stateMutability": "nonpayable",
      "type": "function"
    },
    {
      "constant": true,
      "inputs": [
        {
          "name": "owner",
          "type": "address"
        },
        {
          "name": "spender",
          "type": "address"
        }
      ],
      "name": "allowance",
      "outputs": [
        {
          "name": "",
          "type": "uint256"
        }
      ],
      "payable": false,
      "stateMutability": "view",
      "type": "function"
    },
    {
      "anonymous": false,
      "inputs": [
        {
          "indexed": true,
          "name": "from",
          "type": "address"
        },
        {
          "indexed": true,
          "name": "to",
          "type": "address"
        },
        {
          "indexed": true,
          "name": "delegate",
          "type": "address"
        },
        {
          "indexed": false,
          "name": "amount",
          "type": "uint256"
        },
        {
          "indexed": false,
          "name": "fee",
          "type": "uint256"
        }
      ],
      "name": "TransferPreSigned",
      "type": "event"
    },
    {
      "anonymous": false,
      "inputs": [
        {
          "indexed": true,
          "name": "from",
          "type": "address"
        },
        {
          "indexed": true,
          "name": "to",
          "type": "address"
        },
        {
          "indexed": true,
          "name": "delegate",
          "type": "address"
        },
        {
          "indexed": false,
          "name": "amount",
          "type": "uint256"
        },
        {
          "indexed": false,
          "name": "fee",
          "type": "uint256"
        }
      ],
      "name": "ApprovalPreSigned",
      "type": "event"
    },
    {
      "anonymous": false,
      "inputs": [
        {
          "indexed": true,
          "name": "from",
          "type": "address"
        },
        {
          "indexed": true,
          "name": "to",
          "type": "address"
        },
        {
          "indexed": false,
          "name": "value",
          "type": "uint256"
        }
      ],
      "name": "Transfer",
      "type": "event"
    },
    {
      "anonymous": false,
      "inputs": [
        {
          "indexed": true,
          "name": "owner",
          "type": "address"
        },
        {
          "indexed": true,
          "name": "spender",
          "type": "address"
        },
        {
          "indexed": false,
          "name": "value",
          "type": "uint256"
        }
      ],
      "name": "Approval",
      "type": "event"
    },
    {
      "constant": false,
      "inputs": [
        {
          "name": "_signature",
          "type": "bytes"
        },
        {
          "name": "_to",
          "type": "address"
        },
        {
          "name": "_value",
          "type": "uint256"
        },
        {
          "name": "_fee",
          "type": "uint256"
        },
        {
          "name": "_nonce",
          "type": "uint256"
        }
      ],
      "name": "transferPreSigned",
      "outputs": [
        {
          "name": "",
          "type": "bool"
        }
      ],
      "payable": false,
      "stateMutability": "nonpayable",
      "type": "function"
    },
    {
      "constant": false,
      "inputs": [
        {
          "name": "_signature",
          "type": "bytes"
        },
        {
          "name": "_spender",
          "type": "address"
        },
        {
          "name": "_value",
          "type": "uint256"
        },
        {
          "name": "_fee",
          "type": "uint256"
        },
        {
          "name": "_nonce",
          "type": "uint256"
        }
      ],
      "name": "approvePreSigned",
      "outputs": [
        {
          "name": "",
          "type": "bool"
        }
      ],
      "payable": false,
      "stateMutability": "nonpayable",
      "type": "function"
    },
    {
      "constant": false,
      "inputs": [
        {
          "name": "_signature",
          "type": "bytes"
        },
        {
          "name": "_spender",
          "type": "address"
        },
        {
          "name": "_addedValue",
          "type": "uint256"
        },
        {
          "name": "_fee",
          "type": "uint256"
        },
        {
          "name": "_nonce",
          "type": "uint256"
        }
      ],
      "name": "increaseApprovalPreSigned",
      "outputs": [
        {
          "name": "",
          "type": "bool"
        }
      ],
      "payable": false,
      "stateMutability": "nonpayable",
      "type": "function"
    },
    {
      "constant": false,
      "inputs": [
        {
          "name": "_signature",
          "type": "bytes"
        },
        {
          "name": "_spender",
          "type": "address"
        },
        {
          "name": "_subtractedValue",
          "type": "uint256"
        },
        {
          "name": "_fee",
          "type": "uint256"
        },
        {
          "name": "_nonce",
          "type": "uint256"
        }
      ],
      "name": "decreaseApprovalPreSigned",
      "outputs": [
        {
          "name": "",
          "type": "bool"
        }
      ],
      "payable": false,
      "stateMutability": "nonpayable",
      "type": "function"
    },
    {
      "constant": false,
      "inputs": [
        {
          "name": "_signature",
          "type": "bytes"
        },
        {
          "name": "_from",
          "type": "address"
        },
        {
          "name": "_to",
          "type": "address"
        },
        {
          "name": "_value",
          "type": "uint256"
        },
        {
          "name": "_fee",
          "type": "uint256"
        },
        {
          "name": "_nonce",
          "type": "uint256"
        }
      ],
      "name": "transferFromPreSigned",
      "outputs": [
        {
          "name": "",
          "type": "bool"
        }
      ],
      "payable": false,
      "stateMutability": "nonpayable",
      "type": "function"
    },
    {
      "constant": true,
      "inputs": [
        {
          "name": "_token",
          "type": "address"
        },
        {
          "name": "_to",
          "type": "address"
        },
        {
          "name": "_value",
          "type": "uint256"
        },
        {
          "name": "_fee",
          "type": "uint256"
        },
        {
          "name": "_nonce",
          "type": "uint256"
        }
      ],
      "name": "transferPreSignedHashing",
      "outputs": [
        {
          "name": "",
          "type": "bytes32"
        }
      ],
      "payable": false,
      "stateMutability": "pure",
      "type": "function"
    },
    {
      "constant": true,
      "inputs": [
        {
          "name": "_token",
          "type": "address"
        },
        {
          "name": "_spender",
          "type": "address"
        },
        {
          "name": "_value",
          "type": "uint256"
        },
        {
          "name": "_fee",
          "type": "uint256"
        },
        {
          "name": "_nonce",
          "type": "uint256"
        }
      ],
      "name": "approvePreSignedHashing",
      "outputs": [
        {
          "name": "",
          "type": "bytes32"
        }
      ],
      "payable": false,
      "stateMutability": "pure",
      "type": "function"
    },
    {
      "constant": true,
      "inputs": [
        {
          "name": "_token",
          "type": "address"
        },
        {
          "name": "_spender",
          "type": "address"
        },
        {
          "name": "_addedValue",
          "type": "uint256"
        },
        {
          "name": "_fee",
          "type": "uint256"
        },
        {
          "name": "_nonce",
          "type": "uint256"
        }
      ],
      "name": "increaseApprovalPreSignedHashing",
      "outputs": [
        {
          "name": "",
          "type": "bytes32"
        }
      ],
      "payable": false,
      "stateMutability": "pure",
      "type": "function"
    },
    {
      "constant": true,
      "inputs": [
        {
          "name": "_token",
          "type": "address"
        },
        {
          "name": "_spender",
          "type": "address"
        },
        {
          "name": "_subtractedValue",
          "type": "uint256"
        },
        {
          "name": "_fee",
          "type": "uint256"
        },
        {
          "name": "_nonce",
          "type": "uint256"
        }
      ],
      "name": "decreaseApprovalPreSignedHashing",
      "outputs": [
        {
          "name": "",
          "type": "bytes32"
        }
      ],
      "payable": false,
      "stateMutability": "pure",
      "type": "function"
    },
    {
      "constant": true,
      "inputs": [
        {
          "name": "_token",
          "type": "address"
        },
        {
          "name": "_from",
          "type": "address"
        },
        {
          "name": "_to",
          "type": "address"
        },
        {
          "name": "_value",
          "type": "uint256"
        },
        {
          "name": "_fee",
          "type": "uint256"
        },
        {
          "name": "_nonce",
          "type": "uint256"
        }
      ],
      "name": "transferFromPreSignedHashing",
      "outputs": [
        {
          "name": "",
          "type": "bytes32"
        }
      ],
      "payable": false,
      "stateMutability": "pure",
      "type": "function"
    },
    {
      "constant": true,
      "inputs": [
        {
          "name": "hash",
          "type": "bytes32"
        },
        {
          "name": "sig",
          "type": "bytes"
        }
      ],
      "name": "recover",
      "outputs": [
        {
          "name": "",
          "type": "address"
        }
      ],
      "payable": false,
      "stateMutability": "pure",
      "type": "function"
    }
  ],
  "bytecode": "0x608060405234801561001057600080fd5b506115d3806100206000396000f3006080604052600436106101065763ffffffff7c0100000000000000000000000000000000000000000000000000000000600035041663095ea7b3811461010b5780631296830d1461014357806315420b71146101b657806318160ddd146101f857806319045a251461020d57806323b872dd1461028757806339509351146102b157806359388d78146102d5578063617b390b1461030557806370a08231146103785780638be5278314610399578063a457c2d71461040c578063a45f71ff14610430578063a9059cbb14610460578063adb8249e14610484578063b7656dc5146104f7578063bca505151461052d578063dd62ed3e146105aa578063f7ac9c2e146105d1575b600080fd5b34801561011757600080fd5b5061012f600160a060020a0360043516602435610601565b604080519115158252519081900360200190f35b34801561014f57600080fd5b506040805160206004803580820135601f810184900484028501840190955284845261012f94369492936024939284019190819084018382808284375094975050508335600160a060020a0316945050506020820135916040810135915060600135610617565b3480156101c257600080fd5b506101e6600160a060020a03600435811690602435166044356064356084356107ac565b60408051918252519081900360200190f35b34801561020457600080fd5b506101e6610890565b34801561021957600080fd5b5060408051602060046024803582810135601f810185900485028601850190965285855261026b9583359536956044949193909101919081908401838280828437509497506108969650505050505050565b60408051600160a060020a039092168252519081900360200190f35b34801561029357600080fd5b5061012f600160a060020a036004358116906024351660443561095b565b3480156102bd57600080fd5b5061012f600160a060020a03600435166024356109b2565b3480156102e157600080fd5b506101e6600160a060020a03600435811690602435166044356064356084356109ee565b34801561031157600080fd5b506040805160206004803580820135601f810184900484028501840190955284845261012f94369492936024939284019190819084018382808284375094975050508335600160a060020a0316945050506020820135916040810135915060600135610a9b565b34801561038457600080fd5b506101e6600160a060020a0360043516610c30565b3480156103a557600080fd5b506040805160206004803580820135601f810184900484028501840190955284845261012f94369492936024939284019190819084018382808284375094975050508335600160a060020a0316945050506020820135916040810135915060600135610c4b565b34801561041857600080fd5b5061012f600160a060020a0360043516602435610e25565b34801561043c57600080fd5b506101e6600160a060020a0360043581169060243516604435606435608435610e61565b34801561046c57600080fd5b5061012f600160a060020a0360043516602435610f0e565b34801561049057600080fd5b506040805160206004803580820135601f810184900484028501840190955284845261012f94369492936024939284019190819084018382808284375094975050508335600160a060020a0316945050506020820135916040810135915060600135610f1b565b34801561050357600080fd5b506101e6600160a060020a036004358116906024358116906044351660643560843560a4356110ce565b34801561053957600080fd5b506040805160206004803580820135601f810184900484028501840190955284845261012f94369492936024939284019190819084018382808284375094975050600160a060020a038535811696506020860135169460408101359450606081013593506080013591506111bd9050565b3480156105b657600080fd5b506101e6600160a060020a036004358116906024351661131f565b3480156105dd57600080fd5b506101e6600160a060020a036004358116906024351660443560643560843561134a565b600061060e3384846113f7565b50600192915050565b60008080600160a060020a038716151561063057600080fd5b6068886040518082805190602001908083835b602083106106625780518252601f199092019160209182019101610643565b51815160209384036101000a600019018019909216911617905292019485525060405193849003019092205460ff1615915061069f905057600080fd5b6106ac30888888886107ac565b91506106b88289610896565b9050600160a060020a03811615156106cf57600080fd5b6106da818888611483565b6106e5813387611483565b60016068896040518082805190602001908083835b602083106107195780518252601f1990920191602091820191016106fa565b51815160209384036101000a6000190180199092169116179052920194855250604080519485900382018520805460ff1916961515969096179095558a84528301899052505081513392600160a060020a038b811693908616927fec5a73fd1f178be20c1bca1b406cbf4b5c20d833b66e582fc122fb4baa0fc2a4929181900390910190a4506001979650505050505050565b604080517f48664c16000000000000000000000000000000000000000000000000000000006020808301919091526c01000000000000000000000000600160a060020a03808a16820260248501528816026038830152604c8201869052606c8201859052608c8083018590528351808403909101815260ac909201928390528151600093918291908401908083835b6020831061085a5780518252601f19909201916020918201910161083b565b5181516020939093036101000a600019018019909116921691909117905260405192018290039091209998505050505050505050565b60355490565b600080600080845160411415156108b05760009350610952565b50505060208201516040830151606084015160001a601b60ff8216148015906108dd57508060ff16601c14155b156108eb5760009350610952565b60408051600080825260208083018085528a905260ff8516838501526060830187905260808301869052925160019360a0808501949193601f19840193928390039091019190865af1158015610945573d6000803e3d6000fd5b5050506020604051035193505b50505092915050565b6000610968848484611483565b600160a060020a0384166000908152603460209081526040808320338085529252909120546109a89186916109a3908663ffffffff61157716565b6113f7565b5060019392505050565b336000818152603460209081526040808320600160a060020a0387168452909152812054909161060e9185906109a3908663ffffffff61158e16565b604080517f59388d78000000000000000000000000000000000000000000000000000000006020808301919091526c01000000000000000000000000600160a060020a03808a16820260248501528816026038830152604c8201869052606c8201859052608c8083018590528351808403909101815260ac909201928390528151600093918291908401908083836020831061085a5780518252601f19909201916020918201910161083b565b60008080600160a060020a0387161515610ab457600080fd5b6068886040518082805190602001908083835b60208310610ae65780518252601f199092019160209182019101610ac7565b51815160209384036101000a600019018019909216911617905292019485525060405193849003019092205460ff16159150610b23905057600080fd5b610b30308888888861134a565b9150610b3c8289610896565b9050600160a060020a0381161515610b5357600080fd5b610b5e8188886113f7565b610b69813387611483565b60016068896040518082805190602001908083835b60208310610b9d5780518252601f199092019160209182019101610b7e565b51815160209384036101000a6000190180199092169116179052920194855250604080519485900382018520805460ff1916961515969096179095558a84528301899052505081513392600160a060020a038b811693908616927f43a220267705e74ee2ceafd46afc841850db6f85a662189a7def697bbdd90ffb929181900390910190a4506001979650505050505050565b600160a060020a031660009081526033602052604090205490565b6000808080600160a060020a0388161515610c6557600080fd5b6068896040518082805190602001908083835b60208310610c975780518252601f199092019160209182019101610c78565b51815160209384036101000a600019018019909216911617905292019485525060405193849003019092205460ff16159150610cd4905057600080fd5b610ce130898989896109ee565b9250610ced838a610896565b9150600160a060020a0382161515610d0457600080fd5b610d0e828961131f565b905080871115610d2957610d24828960006113f7565b610d48565b610d4882896109a38a610d3c878e61131f565b9063ffffffff61157716565b610d53823388611483565b600160688a6040518082805190602001908083835b60208310610d875780518252601f199092019160209182019101610d68565b51815160209384036101000a60001901801990921691161790529201948552506040519384900301909220805460ff19169315159390931790925550339050600160a060020a038981169084167f43a220267705e74ee2ceafd46afc841850db6f85a662189a7def697bbdd90ffb610dff868d61131f565b60408051918252602082018c90528051918290030190a450600198975050505050505050565b336000818152603460209081526040808320600160a060020a0387168452909152812054909161060e9185906109a3908663ffffffff61157716565b604080517fa45f71ff000000000000000000000000000000000000000000000000000000006020808301919091526c01000000000000000000000000600160a060020a03808a16820260248501528816026038830152604c8201869052606c8201859052608c8083018590528351808403909101815260ac909201928390528151600093918291908401908083836020831061085a5780518252601f19909201916020918201910161083b565b600061060e338484611483565b60008080600160a060020a0387161515610f3457600080fd5b6068886040518082805190602001908083835b60208310610f665780518252601f199092019160209182019101610f47565b51815160209384036101000a600019018019909216911617905292019485525060405193849003019092205460ff16159150610fa3905057600080fd5b610fb03088888888610e61565b9150610fbc8289610896565b9050600160a060020a0381161515610fd357600080fd5b610ff281886109a389610fe6868d61131f565b9063ffffffff61158e16565b610ffd813387611483565b60016068896040518082805190602001908083835b602083106110315780518252601f199092019160209182019101611012565b51815160209384036101000a60001901801990921691161790529201948552506040519384900301909220805460ff19169315159390931790925550339050600160a060020a038881169083167f43a220267705e74ee2ceafd46afc841850db6f85a662189a7def697bbdd90ffb6110a9858c61131f565b60408051918252602082018b90528051918290030190a4506001979650505050505050565b604080517fb7656dc5000000000000000000000000000000000000000000000000000000006020808301919091526c01000000000000000000000000600160a060020a03808b1682026024850152808a1682026038850152881602604c830152606082018690526080820185905260a08083018590528351808403909101815260c0909201928390528151600093918291908401908083835b602083106111865780518252601f199092019160209182019101611167565b5181516020939093036101000a600019018019909116921691909117905260405192018290039091209a9950505050505050505050565b60008080600160a060020a03871615156111d657600080fd5b6068896040518082805190602001908083835b602083106112085780518252601f1990920191602091820191016111e9565b51815160209384036101000a600019018019909216911617905292019485525060405193849003019092205460ff16159150611245905057600080fd5b6112533089898989896110ce565b915061125f828a610896565b9050600160a060020a038116151561127657600080fd5b611281888888611483565b61129488826109a389610d3c8d8761131f565b61129f813387611483565b600160688a6040518082805190602001908083835b602083106112d35780518252601f1990920191602091820191016112b4565b51815160209384036101000a60001901801990921691161790529201948552506040519384900301909220805460ff1916931515939093179092555060019a9950505050505050505050565b600160a060020a03918216600090815260346020908152604080832093909416825291909152205490565b604080517ff7ac9c2e000000000000000000000000000000000000000000000000000000006020808301919091526c01000000000000000000000000600160a060020a03808a16820260248501528816026038830152604c8201869052606c8201859052608c8083018590528351808403909101815260ac909201928390528151600093918291908401908083836020831061085a5780518252601f19909201916020918201910161083b565b600160a060020a038216151561140c57600080fd5b600160a060020a038316151561142157600080fd5b600160a060020a03808416600081815260346020908152604080832094871680845294825291829020859055815185815291517f8c5be1e5ebec7d5bd14f71427d1e84f3dd0314c0f7b2291e5b200ac8c7c3b9259281900390910190a3505050565b600160a060020a0383166000908152603360205260409020548111156114a857600080fd5b600160a060020a03821615156114bd57600080fd5b600160a060020a0383166000908152603360205260409020546114e6908263ffffffff61157716565b600160a060020a03808516600090815260336020526040808220939093559084168152205461151b908263ffffffff61158e16565b600160a060020a0380841660008181526033602090815260409182902094909455805185815290519193928716927fddf252ad1be2c89b69c2b068fc378daa952ba7f163c4a11628f55a4df523b3ef92918290030190a3505050565b6000808383111561158757600080fd5b5050900390565b6000828201838110156115a057600080fd5b93925050505600a165627a7a723058202a26bb48989bf153ffe374248f8842655ec75e14c9055ec0b43d8e624d367ae40029",
  "source": "pragma solidity ^0.4.24;\n\n// import \"zeppelin-solidity/contracts/token/ERC20/StandardToken.sol\";\n// import \"openzeppelin-eth/contracts/token/ERC20/ERC20.sol\";\nimport \"./ERC865.sol\";\n\n/**\n * @title ERC865Token Token\n *\n * ERC865Token allows users paying transfers in tokens instead of gas\n * https://github.com/ethereum/EIPs/issues/865\n *\n */\n\ncontract ERC865Token is ERC865 {\n\n    /* Nonces of transfers performed */\n    mapping(bytes => bool) signatures;\n\n    event TransferPreSigned(address indexed from, address indexed to, address indexed delegate, uint256 amount, uint256 fee);\n    event ApprovalPreSigned(address indexed from, address indexed to, address indexed delegate, uint256 amount, uint256 fee);\n    /**\n     * @notice Submit a presigned transfer\n     * @param _signature bytes The signature, issued by the owner.\n     * @param _to address The address which you want to transfer to.\n     * @param _value uint256 The amount of tokens to be transferred.\n     * @param _fee uint256 The amount of tokens paid to msg.sender, by the owner.\n     * @param _nonce uint256 Presigned transaction number.\n     */\n    function transferPreSigned(\n        bytes _signature,\n        address _to,\n        uint256 _value,\n        uint256 _fee,\n        uint256 _nonce\n    )\n        public\n        returns (bool)\n    {        \n        require(_to != address(0));\n        require(signatures[_signature] == false);\n\n        bytes32 hashedTx = transferPreSignedHashing(address(this), _to, _value, _fee, _nonce);\n\n        address from = recover(hashedTx, _signature);     \n        require(from != address(0));\n        _transfer(from, _to, _value);\n        _transfer(from, msg.sender, _fee);\n        // _balances[from] = _balances[from].sub(_value).sub(_fee);\n        // _balances[_to] = _balances[_to].add(_value);\n        // _balances[msg.sender] = _balances[msg.sender].add(_fee);\n        signatures[_signature] = true;\n\n        // Transfer(from, _to, _value);\n        // Transfer(from, msg.sender, _fee);\n        emit TransferPreSigned(from, _to, msg.sender, _value, _fee);\n        return true;\n    }\n\n    /**\n     * @notice Submit a presigned approval\n     * @param _signature bytes The signature, issued by the owner.\n     * @param _spender address The address which will spend the funds.\n     * @param _value uint256 The amount of tokens to allow.\n     * @param _fee uint256 The amount of tokens paid to msg.sender, by the owner.\n     * @param _nonce uint256 Presigned transaction number.\n     */\n    function approvePreSigned(\n        bytes _signature,\n        address _spender,\n        uint256 _value,\n        uint256 _fee,\n        uint256 _nonce\n    )\n        public\n        returns (bool)\n    {\n        require(_spender != address(0));\n        require(signatures[_signature] == false);\n\n        bytes32 hashedTx = approvePreSignedHashing(address(this), _spender, _value, _fee, _nonce);\n        address from = recover(hashedTx, _signature);\n        require(from != address(0));\n        _approve(from, _spender, _value);\n        // _allowed[from][_spender] = _value;\n        _transfer(from, msg.sender, _fee);\n        // _balances[from] = _balances[from].sub(_fee);\n        // _balances[msg.sender] = _balances[msg.sender].add(_fee);\n        signatures[_signature] = true;\n\n        // Approval(from, _spender, _value);\n        // Transfer(from, msg.sender, _fee);\n        emit ApprovalPreSigned(from, _spender, msg.sender, _value, _fee);\n        return true;\n    }\n\n    /**\n     * @notice Increase the amount of tokens that an owner allowed to a spender.\n     * @param _signature bytes The signature, issued by the owner.\n     * @param _spender address The address which will spend the funds.\n     * @param _addedValue uint256 The amount of tokens to increase the allowance by.\n     * @param _fee uint256 The amount of tokens paid to msg.sender, by the owner.\n     * @param _nonce uint256 Presigned transaction number.\n     */\n    function increaseApprovalPreSigned(\n        bytes _signature,\n        address _spender,\n        uint256 _addedValue,\n        uint256 _fee,\n        uint256 _nonce\n    )\n        public\n        returns (bool)\n    {\n        require(_spender != address(0));\n        require(signatures[_signature] == false);\n\n        bytes32 hashedTx = increaseApprovalPreSignedHashing(address(this), _spender, _addedValue, _fee, _nonce);\n        address from = recover(hashedTx, _signature);\n        require(from != address(0));\n        _approve(from, _spender, allowance(from, _spender).add(_addedValue));\n        // _allowed[from][_spender] = _allowed[from][_spender].add(_addedValue);\n        _transfer(from, msg.sender, _fee);\n        // _balances[from] = _balances[from].sub(_fee);\n        // _balances[msg.sender] = _balances[msg.sender].add(_fee);\n        signatures[_signature] = true;\n\n        // Approval(from, _spender, _allowed[from][_spender]);\n        // Transfer(from, msg.sender, _fee);\n        emit ApprovalPreSigned(from, _spender, msg.sender, allowance(from, _spender), _fee);\n        return true;\n    }\n\n    /**\n     * @notice Decrease the amount of tokens that an owner allowed to a spender.\n     * @param _signature bytes The signature, issued by the owner\n     * @param _spender address The address which will spend the funds.\n     * @param _subtractedValue uint256 The amount of tokens to decrease the allowance by.\n     * @param _fee uint256 The amount of tokens paid to msg.sender, by the owner.\n     * @param _nonce uint256 Presigned transaction number.\n     */\n    function decreaseApprovalPreSigned(\n        bytes _signature,\n        address _spender,\n        uint256 _subtractedValue,\n        uint256 _fee,\n        uint256 _nonce\n    )\n        public\n        returns (bool)\n    {\n        require(_spender != address(0));\n        require(signatures[_signature] == false);\n\n        bytes32 hashedTx = decreaseApprovalPreSignedHashing(address(this), _spender, _subtractedValue, _fee, _nonce);\n        address from = recover(hashedTx, _signature);\n        require(from != address(0));\n\n        uint oldValue = allowance(from, _spender);\n        if (_subtractedValue > oldValue) {\n            _approve(from, _spender, 0);\n            // _allowed[from][_spender] = 0;\n        } else {\n            _approve(from, _spender, allowance(from,_spender).sub(_subtractedValue));\n            // _allowed[from][_spender] = oldValue.sub(_subtractedValue);\n        }\n        _transfer(from, msg.sender, _fee);\n        // _balances[from] = _balances[from].sub(_fee);\n        // _balances[msg.sender] = _balances[msg.sender].add(_fee);\n        signatures[_signature] = true;\n\n        // Approval(from, _spender, _subtractedValue);\n        // Transfer(from, msg.sender, _fee);\n        emit ApprovalPreSigned(from, _spender, msg.sender, allowance(from, _spender), _fee);\n        return true;\n    }\n\n    /**\n     * @notice Transfer tokens from one address to another\n     * @param _signature bytes The signature, issued by the spender.\n     * @param _from address The address which you want to send tokens from.\n     * @param _to address The address which you want to transfer to.\n     * @param _value uint256 The amount of tokens to be transferred.\n     * @param _fee uint256 The amount of tokens paid to msg.sender, by the spender.\n     * @param _nonce uint256 Presigned transaction number.\n     */\n    function transferFromPreSigned(\n        bytes _signature,\n        address _from,\n        address _to,\n        uint256 _value,\n        uint256 _fee,\n        uint256 _nonce\n    )\n        public\n        returns (bool)\n    {\n        require(_to != address(0));\n        require(signatures[_signature] == false);\n\n        bytes32 hashedTx = transferFromPreSignedHashing(address(this), _from, _to, _value, _fee, _nonce);\n\n        address spender = recover(hashedTx, _signature);\n        require(spender != address(0));\n\n        _transfer(_from, _to, _value);\n        // _balances[_from] = _balances[_from].sub(_value);\n        // _balances[_to] = _balances[_to].add(_value);\n        _approve(_from, spender, allowance(_from, spender).sub(_value));\n        // _allowed[_from][spender] = _allowed[_from][spender].sub(_value);\n        _transfer(spender, msg.sender, _fee);\n        // _balances[spender] = _balances[spender].sub(_fee);\n        // _balances[msg.sender] = _balances[msg.sender].add(_fee);\n        signatures[_signature] = true;\n\n        // Transfer(_from, _to, _value);\n        // Transfer(spender, msg.sender, _fee);\n        return true;\n    }\n\n\n    /**\n     * @notice Hash (keccak256) of the payload used by transferPreSigned\n     * @param _token address The address of the token.\n     * @param _to address The address which you want to transfer to.\n     * @param _value uint256 The amount of tokens to be transferred.\n     * @param _fee uint256 The amount of tokens paid to msg.sender, by the owner.\n     * @param _nonce uint256 Presigned transaction number.\n     */\n    function transferPreSignedHashing(\n        address _token,\n        address _to,\n        uint256 _value,\n        uint256 _fee,\n        uint256 _nonce\n    )\n        public\n        pure\n        returns (bytes32)\n    {\n        /* \"48664c16\": transferPreSignedHashing(address,address,address,uint256,uint256,uint256) */\n        return keccak256(abi.encodePacked(bytes4(0x48664c16), _token, _to, _value, _fee, _nonce));\n    }\n\n    /**\n     * @notice Hash (keccak256) of the payload used by approvePreSigned\n     * @param _token address The address of the token\n     * @param _spender address The address which will spend the funds.\n     * @param _value uint256 The amount of tokens to allow.\n     * @param _fee uint256 The amount of tokens paid to msg.sender, by the owner.\n     * @param _nonce uint256 Presigned transaction number.\n     */\n    function approvePreSignedHashing(\n        address _token,\n        address _spender,\n        uint256 _value,\n        uint256 _fee,\n        uint256 _nonce\n    )\n        public\n        pure\n        returns (bytes32)\n    {\n        /* \"f7ac9c2e\": approvePreSignedHashing(address,address,uint256,uint256,uint256) */\n        return keccak256(abi.encodePacked(bytes4(0xf7ac9c2e), _token, _spender, _value, _fee, _nonce));\n    }\n\n    /**\n     * @notice Hash (keccak256) of the payload used by increaseApprovalPreSigned\n     * @param _token address The address of the token\n     * @param _spender address The address which will spend the funds.\n     * @param _addedValue uint256 The amount of tokens to increase the allowance by.\n     * @param _fee uint256 The amount of tokens paid to msg.sender, by the owner.\n     * @param _nonce uint256 Presigned transaction number.\n     */\n    function increaseApprovalPreSignedHashing(\n        address _token,\n        address _spender,\n        uint256 _addedValue,\n        uint256 _fee,\n        uint256 _nonce\n    )\n        public\n        pure\n        returns (bytes32)\n    {\n        /* \"a45f71ff\": increaseApprovalPreSignedHashing(address,address,uint256,uint256,uint256) */\n        return keccak256(abi.encodePacked(bytes4(0xa45f71ff), _token, _spender, _addedValue, _fee, _nonce));\n    }\n\n     /**\n      * @notice Hash (keccak256) of the payload used by decreaseApprovalPreSigned\n      * @param _token address The address of the token\n      * @param _spender address The address which will spend the funds.\n      * @param _subtractedValue uint256 The amount of tokens to decrease the allowance by.\n      * @param _fee uint256 The amount of tokens paid to msg.sender, by the owner.\n      * @param _nonce uint256 Presigned transaction number.\n      */\n    function decreaseApprovalPreSignedHashing(\n        address _token,\n        address _spender,\n        uint256 _subtractedValue,\n        uint256 _fee,\n        uint256 _nonce\n    )\n        public\n        pure\n        returns (bytes32)\n    {\n        /* \"59388d78\": decreaseApprovalPreSignedHashing(address,address,uint256,uint256,uint256) */\n        return keccak256(abi.encodePacked(bytes4(0x59388d78), _token, _spender, _subtractedValue, _fee, _nonce));\n    }\n\n    /**\n     * @notice Hash (keccak256) of the payload used by transferFromPreSigned\n     * @param _token address The address of the token\n     * @param _from address The address which you want to send tokens from.\n     * @param _to address The address which you want to transfer to.\n     * @param _value uint256 The amount of tokens to be transferred.\n     * @param _fee uint256 The amount of tokens paid to msg.sender, by the spender.\n     * @param _nonce uint256 Presigned transaction number.\n     */\n    function transferFromPreSignedHashing(\n        address _token,\n        address _from,\n        address _to,\n        uint256 _value,\n        uint256 _fee,\n        uint256 _nonce\n    )\n        public\n        pure\n        returns (bytes32)\n    {\n        /* \"b7656dc5\": transferFromPreSignedHashing(address,address,address,uint256,uint256,uint256) */\n        return keccak256(abi.encodePacked(bytes4(0xb7656dc5), _token, _from, _to, _value, _fee, _nonce));\n    }\n\n    /**\n     * @notice Recover signer address from a message by using his signature\n     * @param hash bytes32 message, the hash is the signed message. What is recovered is the signer address.\n     * @param sig bytes signature, the signature is generated using web3.eth.sign()\n     */\n    function recover(bytes32 hash, bytes sig) public pure returns (address) {\n      bytes32 r;\n      bytes32 s;\n      uint8 v;\n\n      //Check the signature length\n      if (sig.length != 65) {\n        return (address(0));\n      }\n\n      // Divide the signature in r, s and v variables\n      assembly {\n        r := mload(add(sig, 32))\n        s := mload(add(sig, 64))\n        v := byte(0, mload(add(sig, 96)))\n      }\n\n    //   // Version of signature should be 27 or 28, but 0 and 1 are also possible versions\n    //    if (v < 27) {\n    //         v += 27;\n    //    }\n\n      // If the version is correct return the signer address\n      if (v != 27 && v != 28) {\n        return (address(0));\n      } else {\n        return ecrecover(hash, v, r, s);\n      }\n    }\n\n}",
  "sourcePath": "/Users/jretina/Programming/PROPSProject/token-vesting-ui/contracts/token/ERC865Token.sol",
  "compiler": {
    "name": "solc",
    "version": "0.4.25+commit.59dbf8f1.Emscripten.clang"
  },
  "schemaVersion": "2.0.2",
  "updatedAt": "2019-02-05T08:19:29.475Z"
}