{
  "contractName": "Ownable",
  "abi": [
    {
      "anonymous": false,
      "inputs": [
        {
          "indexed": true,
          "name": "previousOwner",
          "type": "address"
        }
      ],
      "name": "OwnershipRenounced",
      "type": "event"
    },
    {
      "anonymous": false,
      "inputs": [
        {
          "indexed": true,
          "name": "previousOwner",
          "type": "address"
        },
        {
          "indexed": true,
          "name": "newOwner",
          "type": "address"
        }
      ],
      "name": "OwnershipTransferred",
      "type": "event"
    },
    {
      "constant": false,
      "inputs": [
        {
          "name": "sender",
          "type": "address"
        }
      ],
      "name": "initialize",
      "outputs": [],
      "payable": false,
      "stateMutability": "nonpayable",
      "type": "function"
    },
    {
      "constant": true,
      "inputs": [],
      "name": "owner",
      "outputs": [
        {
          "name": "",
          "type": "address"
        }
      ],
      "payable": false,
      "stateMutability": "view",
      "type": "function"
    },
    {
      "constant": true,
      "inputs": [],
      "name": "isOwner",
      "outputs": [
        {
          "name": "",
          "type": "bool"
        }
      ],
      "payable": false,
      "stateMutability": "view",
      "type": "function"
    },
    {
      "constant": false,
      "inputs": [],
      "name": "renounceOwnership",
      "outputs": [],
      "payable": false,
      "stateMutability": "nonpayable",
      "type": "function"
    },
    {
      "constant": false,
      "inputs": [
        {
          "name": "newOwner",
          "type": "address"
        }
      ],
      "name": "transferOwnership",
      "outputs": [],
      "payable": false,
      "stateMutability": "nonpayable",
      "type": "function"
    }
  ],
  "bytecode": "0x608060405234801561001057600080fd5b50610416806100206000396000f30060806040526004361061006c5763ffffffff7c0100000000000000000000000000000000000000000000000000000000600035041663715018a681146100715780638da5cb5b146100885780638f32d59b146100c6578063c4d66de8146100ef578063f2fde38b1461011d575b600080fd5b34801561007d57600080fd5b5061008661014b565b005b34801561009457600080fd5b5061009d6101c2565b6040805173ffffffffffffffffffffffffffffffffffffffff9092168252519081900360200190f35b3480156100d257600080fd5b506100db6101de565b604080519115158252519081900360200190f35b3480156100fb57600080fd5b5061008673ffffffffffffffffffffffffffffffffffffffff600435166101fc565b34801561012957600080fd5b5061008673ffffffffffffffffffffffffffffffffffffffff60043516610320565b6101536101de565b151561015e57600080fd5b60335460405173ffffffffffffffffffffffffffffffffffffffff909116907ff8df31144d9c2f0f6b59d69b8b98abd5459d07f2742c4df920b25aae33c6482090600090a26033805473ffffffffffffffffffffffffffffffffffffffff19169055565b60335473ffffffffffffffffffffffffffffffffffffffff1690565b60335473ffffffffffffffffffffffffffffffffffffffff16331490565b60008054610100900460ff1680610216575061021661033f565b80610224575060005460ff16155b15156102b757604080517f08c379a000000000000000000000000000000000000000000000000000000000815260206004820152602e60248201527f436f6e747261637420696e7374616e63652068617320616c726561647920626560448201527f656e20696e697469616c697a6564000000000000000000000000000000000000606482015290519081900360840190fd5b50600080546033805473ffffffffffffffffffffffffffffffffffffffff191673ffffffffffffffffffffffffffffffffffffffff949094169390931790925561ff001980831661010090811760ff19166001179091169281900460ff16151502919091179055565b6103286101de565b151561033357600080fd5b61033c81610345565b50565b303b1590565b73ffffffffffffffffffffffffffffffffffffffff8116151561036757600080fd5b60335460405173ffffffffffffffffffffffffffffffffffffffff8084169216907f8be0079c531659141344cd1fd0a4f28419497f9722a3daafe3b4186f6b6457e090600090a36033805473ffffffffffffffffffffffffffffffffffffffff191673ffffffffffffffffffffffffffffffffffffffff929092169190911790555600a165627a7a72305820cb5b64431dee92af513284b3f886c2f1863a7aec2988437e76440cff9bc5e2a30029",
  "source": "pragma solidity ^0.4.24;\n\nimport \"zos-lib/contracts/Initializable.sol\";\n\n/**\n * @title Ownable\n * @dev The Ownable contract has an owner address, and provides basic authorization control\n * functions, this simplifies the implementation of \"user permissions\".\n */\ncontract Ownable is Initializable {\n  address private _owner;\n\n\n  event OwnershipRenounced(address indexed previousOwner);\n  event OwnershipTransferred(\n    address indexed previousOwner,\n    address indexed newOwner\n  );\n\n\n  /**\n   * @dev The Ownable constructor sets the original `owner` of the contract to the sender\n   * account.\n   */\n  function initialize(address sender) public initializer {\n    _owner = sender;\n  }\n\n  /**\n   * @return the address of the owner.\n   */\n  function owner() public view returns(address) {\n    return _owner;\n  }\n\n  /**\n   * @dev Throws if called by any account other than the owner.\n   */\n  modifier onlyOwner() {\n    require(isOwner());\n    _;\n  }\n\n  /**\n   * @return true if `msg.sender` is the owner of the contract.\n   */\n  function isOwner() public view returns(bool) {\n    return msg.sender == _owner;\n  }\n\n  /**\n   * @dev Allows the current owner to relinquish control of the contract.\n   * @notice Renouncing to ownership will leave the contract without an owner.\n   * It will not be possible to call the functions with the `onlyOwner`\n   * modifier anymore.\n   */\n  function renounceOwnership() public onlyOwner {\n    emit OwnershipRenounced(_owner);\n    _owner = address(0);\n  }\n\n  /**\n   * @dev Allows the current owner to transfer control of the contract to a newOwner.\n   * @param newOwner The address to transfer ownership to.\n   */\n  function transferOwnership(address newOwner) public onlyOwner {\n    _transferOwnership(newOwner);\n  }\n\n  /**\n   * @dev Transfers control of the contract to a newOwner.\n   * @param newOwner The address to transfer ownership to.\n   */\n  function _transferOwnership(address newOwner) internal {\n    require(newOwner != address(0));\n    emit OwnershipTransferred(_owner, newOwner);\n    _owner = newOwner;\n  }\n\n  uint256[50] private ______gap;\n}\n",
  "sourcePath": "openzeppelin-eth/contracts/ownership/Ownable.sol",
  "compiler": {
    "name": "solc",
    "version": "0.4.25+commit.59dbf8f1.Emscripten.clang"
  },
  "schemaVersion": "2.0.2",
  "updatedAt": "2019-02-05T08:19:29.481Z"
}