{
  "contractName": "TokenVesting",
  "abi": [
    {
      "constant": false,
      "inputs": [],
      "name": "renounceOwnership",
      "outputs": [],
      "payable": false,
      "stateMutability": "nonpayable",
      "type": "function"
    },
    {
      "constant": true,
      "inputs": [],
      "name": "owner",
      "outputs": [
        {
          "name": "",
          "type": "address"
        }
      ],
      "payable": false,
      "stateMutability": "view",
      "type": "function"
    },
    {
      "constant": true,
      "inputs": [],
      "name": "isOwner",
      "outputs": [
        {
          "name": "",
          "type": "bool"
        }
      ],
      "payable": false,
      "stateMutability": "view",
      "type": "function"
    },
    {
      "constant": false,
      "inputs": [
        {
          "name": "newOwner",
          "type": "address"
        }
      ],
      "name": "transferOwnership",
      "outputs": [],
      "payable": false,
      "stateMutability": "nonpayable",
      "type": "function"
    },
    {
      "anonymous": false,
      "inputs": [
        {
          "indexed": false,
          "name": "amount",
          "type": "uint256"
        }
      ],
      "name": "Released",
      "type": "event"
    },
    {
      "anonymous": false,
      "inputs": [],
      "name": "Revoked",
      "type": "event"
    },
    {
      "anonymous": false,
      "inputs": [
        {
          "indexed": true,
          "name": "previousOwner",
          "type": "address"
        }
      ],
      "name": "OwnershipRenounced",
      "type": "event"
    },
    {
      "anonymous": false,
      "inputs": [
        {
          "indexed": true,
          "name": "previousOwner",
          "type": "address"
        },
        {
          "indexed": true,
          "name": "newOwner",
          "type": "address"
        }
      ],
      "name": "OwnershipTransferred",
      "type": "event"
    },
    {
      "constant": false,
      "inputs": [
        {
          "name": "beneficiary",
          "type": "address"
        },
        {
          "name": "start",
          "type": "uint256"
        },
        {
          "name": "cliffDuration",
          "type": "uint256"
        },
        {
          "name": "duration",
          "type": "uint256"
        },
        {
          "name": "revocable",
          "type": "bool"
        },
        {
          "name": "sender",
          "type": "address"
        }
      ],
      "name": "initialize",
      "outputs": [],
      "payable": false,
      "stateMutability": "nonpayable",
      "type": "function"
    },
    {
      "constant": false,
      "inputs": [
        {
          "name": "sender",
          "type": "address"
        }
      ],
      "name": "initialize",
      "outputs": [],
      "payable": false,
      "stateMutability": "nonpayable",
      "type": "function"
    },
    {
      "constant": true,
      "inputs": [],
      "name": "beneficiary",
      "outputs": [
        {
          "name": "",
          "type": "address"
        }
      ],
      "payable": false,
      "stateMutability": "view",
      "type": "function"
    },
    {
      "constant": true,
      "inputs": [],
      "name": "cliff",
      "outputs": [
        {
          "name": "",
          "type": "uint256"
        }
      ],
      "payable": false,
      "stateMutability": "view",
      "type": "function"
    },
    {
      "constant": true,
      "inputs": [],
      "name": "start",
      "outputs": [
        {
          "name": "",
          "type": "uint256"
        }
      ],
      "payable": false,
      "stateMutability": "view",
      "type": "function"
    },
    {
      "constant": true,
      "inputs": [],
      "name": "duration",
      "outputs": [
        {
          "name": "",
          "type": "uint256"
        }
      ],
      "payable": false,
      "stateMutability": "view",
      "type": "function"
    },
    {
      "constant": true,
      "inputs": [],
      "name": "revocable",
      "outputs": [
        {
          "name": "",
          "type": "bool"
        }
      ],
      "payable": false,
      "stateMutability": "view",
      "type": "function"
    },
    {
      "constant": true,
      "inputs": [
        {
          "name": "token",
          "type": "address"
        }
      ],
      "name": "released",
      "outputs": [
        {
          "name": "",
          "type": "uint256"
        }
      ],
      "payable": false,
      "stateMutability": "view",
      "type": "function"
    },
    {
      "constant": true,
      "inputs": [
        {
          "name": "token",
          "type": "address"
        }
      ],
      "name": "revoked",
      "outputs": [
        {
          "name": "",
          "type": "bool"
        }
      ],
      "payable": false,
      "stateMutability": "view",
      "type": "function"
    },
    {
      "constant": false,
      "inputs": [
        {
          "name": "token",
          "type": "address"
        }
      ],
      "name": "release",
      "outputs": [],
      "payable": false,
      "stateMutability": "nonpayable",
      "type": "function"
    },
    {
      "constant": false,
      "inputs": [
        {
          "name": "token",
          "type": "address"
        }
      ],
      "name": "revoke",
      "outputs": [],
      "payable": false,
      "stateMutability": "nonpayable",
      "type": "function"
    },
    {
      "constant": true,
      "inputs": [
        {
          "name": "token",
          "type": "address"
        }
      ],
      "name": "releasableAmount",
      "outputs": [
        {
          "name": "",
          "type": "uint256"
        }
      ],
      "payable": false,
      "stateMutability": "view",
      "type": "function"
    },
    {
      "constant": true,
      "inputs": [
        {
          "name": "token",
          "type": "address"
        }
      ],
      "name": "vestedAmount",
      "outputs": [
        {
          "name": "",
          "type": "uint256"
        }
      ],
      "payable": false,
      "stateMutability": "view",
      "type": "function"
    }
  ],
  "bytecode": "0x608060405234801561001057600080fd5b50610c6a806100206000396000f3006080604052600436106100f05763ffffffff7c01000000000000000000000000000000000000000000000000000000006000350416630d0ecd6e81146100f55780630fb5a6b41461013057806313d033c0146101575780631726cbc81461016c578063191655871461018d578063384711cc146101ae57806338af3eed146101cf578063715018a61461020057806374a8f10314610215578063872a7810146102365780638da5cb5b1461025f5780638f32d59b146102745780639852595c14610289578063be9a6555146102aa578063c4d66de8146102bf578063f2fde38b146102e0578063fa01dc0614610301575b600080fd5b34801561010157600080fd5b5061012e600160a060020a0360043581169060243590604435906064359060843515159060a43516610322565b005b34801561013c57600080fd5b50610145610497565b60408051918252519081900360200190f35b34801561016357600080fd5b5061014561049d565b34801561017857600080fd5b50610145600160a060020a03600435166104a3565b34801561019957600080fd5b5061012e600160a060020a03600435166104db565b3480156101ba57600080fd5b50610145600160a060020a0360043516610587565b3480156101db57600080fd5b506101e46106f7565b60408051600160a060020a039092168252519081900360200190f35b34801561020c57600080fd5b5061012e610706565b34801561022157600080fd5b5061012e600160a060020a0360043516610770565b34801561024257600080fd5b5061024b6108df565b604080519115158252519081900360200190f35b34801561026b57600080fd5b506101e46108e8565b34801561028057600080fd5b5061024b6108f7565b34801561029557600080fd5b50610145600160a060020a0360043516610908565b3480156102b657600080fd5b50610145610923565b3480156102cb57600080fd5b5061012e600160a060020a0360043516610929565b3480156102ec57600080fd5b5061012e600160a060020a0360043516610a40565b34801561030d57600080fd5b5061024b600160a060020a0360043516610a5f565b60008054610100900460ff168061033c575061033c610a7d565b8061034a575060005460ff16155b15156103dd57604080517f08c379a000000000000000000000000000000000000000000000000000000000815260206004820152602e60248201527f436f6e747261637420696e7374616e63652068617320616c726561647920626560448201527f656e20696e697469616c697a6564000000000000000000000000000000000000606482015290519081900360840190fd5b5060008054600161010061ff00198316811760ff1916919091179092550460ff1661040782610929565b600160a060020a038716151561041c57600080fd5b8385111561042957600080fd5b6066805473ffffffffffffffffffffffffffffffffffffffff1916600160a060020a038916179055606a805460ff1916841515179055606984905561046e8686610a83565b6067556068959095555050600080549315156101000261ff001990941693909317909255505050565b60695490565b60675490565b600160a060020a0381166000908152606b60205260408120546104d5906104c984610587565b9063ffffffff610aa016565b92915050565b60006104e6826104a3565b9050600081116104f557600080fd5b600160a060020a0382166000908152606b602052604090205461051e908263ffffffff610a8316565b600160a060020a038084166000818152606b60205260409020929092556066546105509291168363ffffffff610ab716565b6040805182815290517ffb81f9b30d73d830c3544b34d827c08142579ee75710b490bab0b3995468c5659181900360200190a15050565b600080600083600160a060020a03166370a08231306040518263ffffffff167c01000000000000000000000000000000000000000000000000000000000281526004018082600160a060020a0316600160a060020a03168152602001915050602060405180830381600087803b15801561060057600080fd5b505af1158015610614573d6000803e3d6000fd5b505050506040513d602081101561062a57600080fd5b5051600160a060020a0385166000908152606b602052604090205490925061065990839063ffffffff610a8316565b905060675442101561066e57600092506106f0565b6069546068546106839163ffffffff610a8316565b421015806106a95750600160a060020a0384166000908152606c602052604090205460ff165b156106b6578092506106f0565b6106ed6069546106e16106d460685442610aa090919063ffffffff16565b849063ffffffff610b6f16565b9063ffffffff610b9d16565b92505b5050919050565b606654600160a060020a031690565b61070e6108f7565b151561071957600080fd5b603354604051600160a060020a03909116907ff8df31144d9c2f0f6b59d69b8b98abd5459d07f2742c4df920b25aae33c6482090600090a26033805473ffffffffffffffffffffffffffffffffffffffff19169055565b600080600061077d6108f7565b151561078857600080fd5b606a5460ff16151561079957600080fd5b600160a060020a0384166000908152606c602052604090205460ff16156107bf57600080fd5b604080517f70a082310000000000000000000000000000000000000000000000000000000081523060048201529051600160a060020a038616916370a082319160248083019260209291908290030181600087803b15801561082057600080fd5b505af1158015610834573d6000803e3d6000fd5b505050506040513d602081101561084a57600080fd5b50519250610857846104a3565b9150610869838363ffffffff610aa016565b600160a060020a0385166000908152606c60205260409020805460ff1916600117905590506108b06108996108e8565b600160a060020a038616908363ffffffff610ab716565b6040517f44825a4b2df8acb19ce4e1afba9aa850c8b65cdb7942e2078f27d0b0960efee690600090a150505050565b606a5460ff1690565b603354600160a060020a031690565b603354600160a060020a0316331490565b600160a060020a03166000908152606b602052604090205490565b60685490565b60008054610100900460ff16806109435750610943610a7d565b80610951575060005460ff16155b15156109e457604080517f08c379a000000000000000000000000000000000000000000000000000000000815260206004820152602e60248201527f436f6e747261637420696e7374616e63652068617320616c726561647920626560448201527f656e20696e697469616c697a6564000000000000000000000000000000000000606482015290519081900360840190fd5b50600080546033805473ffffffffffffffffffffffffffffffffffffffff1916600160a060020a03949094169390931790925561ff001980831661010090811760ff19166001179091169281900460ff16151502919091179055565b610a486108f7565b1515610a5357600080fd5b610a5c81610bc0565b50565b600160a060020a03166000908152606c602052604090205460ff1690565b303b1590565b600082820183811015610a9557600080fd5b8091505b5092915050565b60008083831115610ab057600080fd5b5050900390565b82600160a060020a031663a9059cbb83836040518363ffffffff167c01000000000000000000000000000000000000000000000000000000000281526004018083600160a060020a0316600160a060020a0316815260200182815260200192505050602060405180830381600087803b158015610b3357600080fd5b505af1158015610b47573d6000803e3d6000fd5b505050506040513d6020811015610b5d57600080fd5b50511515610b6a57600080fd5b505050565b600080831515610b825760009150610a99565b50828202828482811515610b9257fe5b0414610a9557600080fd5b600080808311610bac57600080fd5b8284811515610bb757fe5b04949350505050565b600160a060020a0381161515610bd557600080fd5b603354604051600160a060020a038084169216907f8be0079c531659141344cd1fd0a4f28419497f9722a3daafe3b4186f6b6457e090600090a36033805473ffffffffffffffffffffffffffffffffffffffff1916600160a060020a03929092169190911790555600a165627a7a72305820ba6671ead4cfdd99a9e3504255a50ac8dc081ce6ea4c3e1a2b13d3b740b3664e0029",
  "source": "/* solium-disable security/no-block-members */\n\npragma solidity ^0.4.24;\n\nimport \"zos-lib/contracts/Initializable.sol\";\nimport \"openzeppelin-eth/contracts/token/ERC20/SafeERC20.sol\";\nimport \"openzeppelin-eth/contracts/ownership/Ownable.sol\";\nimport \"openzeppelin-eth/contracts/math/SafeMath.sol\";\n\n/**\n * @title TokenVesting\n * @dev A token holder contract that can release its token balance gradually like a\n * typical vesting scheme, with a cliff and vesting period. Optionally revocable by the\n * owner.\n */\ncontract TokenVesting is Initializable, Ownable {\n  using SafeMath for uint256;\n  using SafeERC20 for IERC20;\n\n  event Released(uint256 amount);\n  event Revoked();\n\n  // beneficiary of tokens after they are released\n  address private _beneficiary;\n\n  uint256 private _cliff;\n  uint256 private _start;\n  uint256 private _duration;\n\n  bool private _revocable;\n\n  mapping (address => uint256) private _released;\n  mapping (address => bool) private _revoked;\n\n  /**\n   * @dev Creates a vesting contract that vests its balance of any ERC20 token to the\n   * beneficiary, gradually in a linear fashion until start + duration. By then all\n   * of the balance will have vested.\n   * @param beneficiary address of the beneficiary to whom vested tokens are transferred\n   * @param cliffDuration duration in seconds of the cliff in which tokens will begin to vest\n   * @param start the time (as Unix time) at which point vesting starts\n   * @param duration duration in seconds of the period in which the tokens will vest\n   * @param revocable whether the vesting is revocable or not\n   */\n  function initialize(\n    address beneficiary,\n    uint256 start,\n    uint256 cliffDuration,\n    uint256 duration,\n    bool revocable,\n    address sender\n  )\n    public\n    initializer\n  {\n    Ownable.initialize(sender);\n\n    require(beneficiary != address(0));\n    require(cliffDuration <= duration);\n\n    _beneficiary = beneficiary;\n    _revocable = revocable;\n    _duration = duration;\n    _cliff = start.add(cliffDuration);\n    _start = start;\n  }\n\n  /**\n   * @return the beneficiary of the tokens.\n   */\n  function beneficiary() public view returns(address) {\n    return _beneficiary;\n  }\n\n  /**\n   * @return the cliff time of the token vesting.\n   */\n  function cliff() public view returns(uint256) {\n    return _cliff;\n  }\n\n  /**\n   * @return the start time of the token vesting.\n   */\n  function start() public view returns(uint256) {\n    return _start;\n  }\n\n  /**\n   * @return the duration of the token vesting.\n   */\n  function duration() public view returns(uint256) {\n    return _duration;\n  }\n\n  /**\n   * @return true if the vesting is revocable.\n   */\n  function revocable() public view returns(bool) {\n    return _revocable;\n  }\n\n  /**\n   * @return the amount of the token released.\n   */\n  function released(address token) public view returns(uint256) {\n    return _released[token];\n  }\n\n  /**\n   * @return true if the token is revoked.\n   */\n  function revoked(address token) public view returns(bool) {\n    return _revoked[token];\n  }\n\n  /**\n   * @notice Transfers vested tokens to beneficiary.\n   * @param token ERC20 token which is being vested\n   */\n  function release(IERC20 token) public {\n    uint256 unreleased = releasableAmount(token);\n\n    require(unreleased > 0);\n\n    _released[token] = _released[token].add(unreleased);\n\n    token.safeTransfer(_beneficiary, unreleased);\n\n    emit Released(unreleased);\n  }\n\n  /**\n   * @notice Allows the owner to revoke the vesting. Tokens already vested\n   * remain in the contract, the rest are returned to the owner.\n   * @param token ERC20 token which is being vested\n   */\n  function revoke(IERC20 token) public onlyOwner {\n    require(_revocable);\n    require(!_revoked[token]);\n\n    uint256 balance = token.balanceOf(address(this));\n\n    uint256 unreleased = releasableAmount(token);\n    uint256 refund = balance.sub(unreleased);\n\n    _revoked[token] = true;\n\n    token.safeTransfer(owner(), refund);\n\n    emit Revoked();\n  }\n\n  /**\n   * @dev Calculates the amount that has already vested but hasn't been released yet.\n   * @param token ERC20 token which is being vested\n   */\n  function releasableAmount(IERC20 token) public view returns (uint256) {\n    return vestedAmount(token).sub(_released[token]);\n  }\n\n  /**\n   * @dev Calculates the amount that has already vested.\n   * @param token ERC20 token which is being vested\n   */\n  function vestedAmount(IERC20 token) public view returns (uint256) {\n    uint256 currentBalance = token.balanceOf(this);\n    uint256 totalBalance = currentBalance.add(_released[token]);\n\n    if (block.timestamp < _cliff) {\n      return 0;\n    } else if (block.timestamp >= _start.add(_duration) || _revoked[token]) {\n      return totalBalance;\n    } else {\n      return totalBalance.mul(block.timestamp.sub(_start)).div(_duration);\n    }\n  }\n\n  uint256[50] private ______gap;\n}",
  "sourcePath": "/Users/jretina/Programming/PROPSProject/token-vesting-ui/contracts/TokenVesting.sol",
  "compiler": {
    "name": "solc",
    "version": "0.4.25+commit.59dbf8f1.Emscripten.clang"
  },
  "schemaVersion": "2.0.2",
  "updatedAt": "2019-02-05T08:19:29.473Z"
}